{
  "contractName": "DigitalIdIssuer",
  "abi": [
    {
      "inputs": [],
      "stateMutability": "nonpayable",
      "type": "constructor"
    },
    {
      "anonymous": false,
      "inputs": [
        {
          "indexed": true,
          "internalType": "address",
          "name": "owner",
          "type": "address"
        },
        {
          "indexed": true,
          "internalType": "address",
          "name": "approved",
          "type": "address"
        },
        {
          "indexed": true,
          "internalType": "uint256",
          "name": "tokenId",
          "type": "uint256"
        }
      ],
      "name": "Approval",
      "type": "event"
    },
    {
      "anonymous": false,
      "inputs": [
        {
          "indexed": true,
          "internalType": "address",
          "name": "owner",
          "type": "address"
        },
        {
          "indexed": true,
          "internalType": "address",
          "name": "operator",
          "type": "address"
        },
        {
          "indexed": false,
          "internalType": "bool",
          "name": "approved",
          "type": "bool"
        }
      ],
      "name": "ApprovalForAll",
      "type": "event"
    },
    {
      "anonymous": false,
      "inputs": [
        {
          "indexed": true,
          "internalType": "address",
          "name": "from",
          "type": "address"
        },
        {
          "indexed": true,
          "internalType": "address",
          "name": "to",
          "type": "address"
        },
        {
          "indexed": true,
          "internalType": "uint256",
          "name": "tokenId",
          "type": "uint256"
        }
      ],
      "name": "Transfer",
      "type": "event"
    },
    {
      "inputs": [
        {
          "internalType": "address",
          "name": "to",
          "type": "address"
        },
        {
          "internalType": "uint256",
          "name": "tokenId",
          "type": "uint256"
        }
      ],
      "name": "approve",
      "outputs": [],
      "stateMutability": "nonpayable",
      "type": "function"
    },
    {
      "inputs": [
        {
          "internalType": "address",
          "name": "owner",
          "type": "address"
        }
      ],
      "name": "balanceOf",
      "outputs": [
        {
          "internalType": "uint256",
          "name": "",
          "type": "uint256"
        }
      ],
      "stateMutability": "view",
      "type": "function",
      "constant": true
    },
    {
      "inputs": [],
      "name": "baseURI",
      "outputs": [
        {
          "internalType": "string",
          "name": "",
          "type": "string"
        }
      ],
      "stateMutability": "view",
      "type": "function",
      "constant": true
    },
    {
      "inputs": [
        {
          "internalType": "uint256",
          "name": "tokenId",
          "type": "uint256"
        }
      ],
      "name": "getApproved",
      "outputs": [
        {
          "internalType": "address",
          "name": "",
          "type": "address"
        }
      ],
      "stateMutability": "view",
      "type": "function",
      "constant": true
    },
    {
      "inputs": [
        {
          "internalType": "address",
          "name": "owner",
          "type": "address"
        },
        {
          "internalType": "address",
          "name": "operator",
          "type": "address"
        }
      ],
      "name": "isApprovedForAll",
      "outputs": [
        {
          "internalType": "bool",
          "name": "",
          "type": "bool"
        }
      ],
      "stateMutability": "view",
      "type": "function",
      "constant": true
    },
    {
      "inputs": [],
      "name": "name",
      "outputs": [
        {
          "internalType": "string",
          "name": "",
          "type": "string"
        }
      ],
      "stateMutability": "view",
      "type": "function",
      "constant": true
    },
    {
      "inputs": [
        {
          "internalType": "uint256",
          "name": "tokenId",
          "type": "uint256"
        }
      ],
      "name": "ownerOf",
      "outputs": [
        {
          "internalType": "address",
          "name": "",
          "type": "address"
        }
      ],
      "stateMutability": "view",
      "type": "function",
      "constant": true
    },
    {
      "inputs": [
        {
          "internalType": "address",
          "name": "from",
          "type": "address"
        },
        {
          "internalType": "address",
          "name": "to",
          "type": "address"
        },
        {
          "internalType": "uint256",
          "name": "tokenId",
          "type": "uint256"
        }
      ],
      "name": "safeTransferFrom",
      "outputs": [],
      "stateMutability": "nonpayable",
      "type": "function"
    },
    {
      "inputs": [
        {
          "internalType": "address",
          "name": "from",
          "type": "address"
        },
        {
          "internalType": "address",
          "name": "to",
          "type": "address"
        },
        {
          "internalType": "uint256",
          "name": "tokenId",
          "type": "uint256"
        },
        {
          "internalType": "bytes",
          "name": "_data",
          "type": "bytes"
        }
      ],
      "name": "safeTransferFrom",
      "outputs": [],
      "stateMutability": "nonpayable",
      "type": "function"
    },
    {
      "inputs": [
        {
          "internalType": "address",
          "name": "operator",
          "type": "address"
        },
        {
          "internalType": "bool",
          "name": "approved",
          "type": "bool"
        }
      ],
      "name": "setApprovalForAll",
      "outputs": [],
      "stateMutability": "nonpayable",
      "type": "function"
    },
    {
      "inputs": [
        {
          "internalType": "bytes4",
          "name": "interfaceId",
          "type": "bytes4"
        }
      ],
      "name": "supportsInterface",
      "outputs": [
        {
          "internalType": "bool",
          "name": "",
          "type": "bool"
        }
      ],
      "stateMutability": "view",
      "type": "function",
      "constant": true
    },
    {
      "inputs": [],
      "name": "symbol",
      "outputs": [
        {
          "internalType": "string",
          "name": "",
          "type": "string"
        }
      ],
      "stateMutability": "view",
      "type": "function",
      "constant": true
    },
    {
      "inputs": [
        {
          "internalType": "uint256",
          "name": "index",
          "type": "uint256"
        }
      ],
      "name": "tokenByIndex",
      "outputs": [
        {
          "internalType": "uint256",
          "name": "",
          "type": "uint256"
        }
      ],
      "stateMutability": "view",
      "type": "function",
      "constant": true
    },
    {
      "inputs": [
        {
          "internalType": "address",
          "name": "owner",
          "type": "address"
        },
        {
          "internalType": "uint256",
          "name": "index",
          "type": "uint256"
        }
      ],
      "name": "tokenOfOwnerByIndex",
      "outputs": [
        {
          "internalType": "uint256",
          "name": "",
          "type": "uint256"
        }
      ],
      "stateMutability": "view",
      "type": "function",
      "constant": true
    },
    {
      "inputs": [
        {
          "internalType": "uint256",
          "name": "tokenId",
          "type": "uint256"
        }
      ],
      "name": "tokenURI",
      "outputs": [
        {
          "internalType": "string",
          "name": "",
          "type": "string"
        }
      ],
      "stateMutability": "view",
      "type": "function",
      "constant": true
    },
    {
      "inputs": [],
      "name": "totalSupply",
      "outputs": [
        {
          "internalType": "uint256",
          "name": "",
          "type": "uint256"
        }
      ],
      "stateMutability": "view",
      "type": "function",
      "constant": true
    },
    {
      "inputs": [
        {
          "internalType": "address",
          "name": "from",
          "type": "address"
        },
        {
          "internalType": "address",
          "name": "to",
          "type": "address"
        },
        {
          "internalType": "uint256",
          "name": "tokenId",
          "type": "uint256"
        }
      ],
      "name": "transferFrom",
      "outputs": [],
      "stateMutability": "nonpayable",
      "type": "function"
    },
    {
      "inputs": [
        {
          "internalType": "address",
          "name": "verifiedPerson",
          "type": "address"
        },
        {
          "internalType": "string",
          "name": "verifiedName",
          "type": "string"
        },
        {
          "internalType": "string",
          "name": "tokenURI",
          "type": "string"
        }
      ],
      "name": "issueId",
      "outputs": [
        {
          "internalType": "uint256",
          "name": "",
          "type": "uint256"
        }
      ],
      "stateMutability": "nonpayable",
      "type": "function"
    },
    {
      "inputs": [
        {
          "internalType": "uint256",
          "name": "idNumber",
          "type": "uint256"
        }
      ],
      "name": "getVerifiedName",
      "outputs": [
        {
          "internalType": "string",
          "name": "",
          "type": "string"
        }
      ],
      "stateMutability": "view",
      "type": "function",
      "constant": true
    },
    {
      "inputs": [
        {
          "internalType": "uint256",
          "name": "idNumber",
          "type": "uint256"
        }
      ],
      "name": "getVerifiedAddress",
      "outputs": [
        {
          "internalType": "string",
          "name": "",
          "type": "string"
        }
      ],
      "stateMutability": "view",
      "type": "function",
      "constant": true
    },
    {
      "inputs": [
        {
          "internalType": "uint256",
          "name": "idNumber",
          "type": "uint256"
        }
      ],
      "name": "getVerifiedSsn",
      "outputs": [
        {
          "internalType": "string",
          "name": "",
          "type": "string"
        }
      ],
      "stateMutability": "view",
      "type": "function",
      "constant": true
    },
    {
      "inputs": [
        {
          "internalType": "uint256",
          "name": "idNumber",
          "type": "uint256"
        }
      ],
      "name": "getVerifiedIncome",
      "outputs": [
        {
          "internalType": "string",
          "name": "",
          "type": "string"
        }
      ],
      "stateMutability": "view",
      "type": "function",
      "constant": true
    }
  ],
  "bytecode": "0x60806040523480156200001157600080fd5b50604080518082018252600a815269111a59da5d185b08125160b21b60208083019190915282518084019093526002835261125160f21b90830152906200005f6301ffc9a760e01b620000c9565b8151620000749060069060208501906200014e565b5080516200008a9060079060208401906200014e565b506200009d6380ac58cd60e01b620000c9565b620000af635b5e139f60e01b620000c9565b620000c163780e9d6360e01b620000c9565b5050620001ea565b6001600160e01b0319808216141562000129576040805162461bcd60e51b815260206004820152601c60248201527f4552433136353a20696e76616c696420696e7465726661636520696400000000604482015290519081900360640190fd5b6001600160e01b0319166000908152602081905260409020805460ff19166001179055565b828054600181600116156101000203166002900490600052602060002090601f016020900481019282601f106200019157805160ff1916838001178555620001c1565b82800160010185558215620001c1579182015b82811115620001c1578251825591602001919060010190620001a4565b50620001cf929150620001d3565b5090565b5b80821115620001cf5760008155600101620001d4565b61216280620001fa6000396000f3fe608060405234801561001057600080fd5b50600436106101425760003560e01c80636352211e116100b8578063a22cb4651161007c578063a22cb465146104ff578063b88d4fde1461052d578063c87b56dd146105f3578063e985e9c514610610578063f0a75f1f1461063e578063f95c36001461065b57610142565b80636352211e1461036f5780636c0360eb1461038c57806370a082311461039457806395d89b41146103ba578063992d0eb7146103c257610142565b80631dcc516b1161010a5780631dcc516b1461028057806323b872dd1461029d5780632f745c59146102d35780633fa44d0c146102ff57806342842e0e1461031c5780634f6ccce71461035257610142565b806301ffc9a71461014757806306fdde0314610182578063081812fc146101ff578063095ea7b31461023857806318160ddd14610266575b600080fd5b61016e6004803603602081101561015d57600080fd5b50356001600160e01b031916610678565b604080519115158252519081900360200190f35b61018a61069b565b6040805160208082528351818301528351919283929083019185019080838360005b838110156101c45781810151838201526020016101ac565b50505050905090810190601f1680156101f15780820380516001836020036101000a031916815260200191505b509250505060405180910390f35b61021c6004803603602081101561021557600080fd5b5035610731565b604080516001600160a01b039092168252519081900360200190f35b6102646004803603604081101561024e57600080fd5b506001600160a01b038135169060200135610793565b005b61026e61086e565b60408051918252519081900360200190f35b61018a6004803603602081101561029657600080fd5b503561087f565b610264600480360360608110156102b357600080fd5b506001600160a01b0381358116916020810135909116906040013561096b565b61026e600480360360408110156102e957600080fd5b506001600160a01b0381351690602001356109c2565b61018a6004803603602081101561031557600080fd5b50356109ed565b6102646004803603606081101561033257600080fd5b506001600160a01b03813581169160208101359091169060400135610aa1565b61026e6004803603602081101561036857600080fd5b5035610abc565b61021c6004803603602081101561038557600080fd5b5035610ad2565b61018a610afa565b61026e600480360360208110156103aa57600080fd5b50356001600160a01b0316610b5b565b61018a610bc3565b61026e600480360360608110156103d857600080fd5b6001600160a01b03823516919081019060408101602082013564010000000081111561040357600080fd5b82018360208201111561041557600080fd5b8035906020019184600183028401116401000000008311171561043757600080fd5b91908080601f016020809104026020016040519081016040528093929190818152602001838380828437600092019190915250929594936020810193503591505064010000000081111561048a57600080fd5b82018360208201111561049c57600080fd5b803590602001918460018302840111640100000000831117156104be57600080fd5b91908080601f016020809104026020016040519081016040528093929190818152602001838380828437600092019190915250929550610c24945050505050565b6102646004803603604081101561051557600080fd5b506001600160a01b0381351690602001351515610c66565b6102646004803603608081101561054357600080fd5b6001600160a01b0382358116926020810135909116916040820135919081019060808101606082013564010000000081111561057e57600080fd5b82018360208201111561059057600080fd5b803590602001918460018302840111640100000000831117156105b257600080fd5b91908080601f016020809104026020016040519081016040528093929190818152602001838380828437600092019190915250929550610d6b945050505050565b61018a6004803603602081101561060957600080fd5b5035610dc9565b61016e6004803603604081101561062657600080fd5b506001600160a01b0381358116916020013516611070565b61018a6004803603602081101561065457600080fd5b503561109e565b61018a6004803603602081101561067157600080fd5b5035611152565b6001600160e01b0319811660009081526020819052604090205460ff165b919050565b60068054604080516020601f60026000196101006001881615020190951694909404938401819004810282018101909252828152606093909290918301828280156107275780601f106106fc57610100808354040283529160200191610727565b820191906000526020600020905b81548152906001019060200180831161070a57829003601f168201915b5050505050905090565b600061073c82611206565b6107775760405162461bcd60e51b815260040180806020018281038252602c81526020018061202b602c913960400191505060405180910390fd5b506000908152600460205260409020546001600160a01b031690565b600061079e82610ad2565b9050806001600160a01b0316836001600160a01b031614156107f15760405162461bcd60e51b81526004018080602001828103825260218152602001806120db6021913960400191505060405180910390fd5b806001600160a01b0316610803611213565b6001600160a01b0316148061082457506108248161081f611213565b611070565b61085f5760405162461bcd60e51b8152600401808060200182810382526038815260200180611f7e6038913960400191505060405180910390fd5b6108698383611217565b505050565b600061087a6002611285565b905090565b606061088a82611206565b6108c9576040805162461bcd60e51b81526020600482018190526024820152600080516020611f5e833981519152604482015290519081900360640190fd5b6000828152600b602090815260409182902080548351601f600260001961010060018616150201909316929092049182018490048402810184019094528084526060939283018282801561095e5780601f106109335761010080835404028352916020019161095e565b820191906000526020600020905b81548152906001019060200180831161094157829003601f168201915b5093979650505050505050565b61097c610976611213565b82611290565b6109b75760405162461bcd60e51b81526004018080602001828103825260318152602001806120fc6031913960400191505060405180910390fd5b610869838383611334565b6001600160a01b03821660009081526001602052604081206109e49083611480565b90505b92915050565b60606109f882611206565b610a37576040805162461bcd60e51b81526020600482018190526024820152600080516020611f5e833981519152604482015290519081900360640190fd5b6000828152600d602090815260409182902080548351601f600260001961010060018616150201909316929092049182018490048402810184019094528084526060939283018282801561095e5780601f106109335761010080835404028352916020019161095e565b61086983838360405180602001604052806000815250610d6b565b600080610aca60028461148c565b509392505050565b60006109e782604051806060016040528060298152602001611fe060299139600291906114a8565b60098054604080516020601f60026000196101006001881615020190951694909404938401819004810282018101909252828152606093909290918301828280156107275780601f106106fc57610100808354040283529160200191610727565b60006001600160a01b038216610ba25760405162461bcd60e51b815260040180806020018281038252602a815260200180611fb6602a913960400191505060405180910390fd5b6001600160a01b03821660009081526001602052604090206109e790611285565b60078054604080516020601f60026000196101006001881615020190951694909404938401819004810282018101909252828152606093909290918301828280156107275780601f106106fc57610100808354040283529160200191610727565b6000610c30600a6114b5565b6000610c3c600a6114be565b9050610c4884826114c2565b610c5285826114e1565b610c5c818461160f565b90505b9392505050565b610c6e611213565b6001600160a01b0316826001600160a01b03161415610cd4576040805162461bcd60e51b815260206004820152601960248201527f4552433732313a20617070726f766520746f2063616c6c657200000000000000604482015290519081900360640190fd5b8060056000610ce1611213565b6001600160a01b03908116825260208083019390935260409182016000908120918716808252919093529120805460ff191692151592909217909155610d25611213565b6001600160a01b03167f17307eab39ab6107e8899845ad3d59bd9653f200f220920489ca2b5937696c318360405180821515815260200191505060405180910390a35050565b610d7c610d76611213565b83611290565b610db75760405162461bcd60e51b81526004018080602001828103825260318152602001806120fc6031913960400191505060405180910390fd5b610dc384848484611672565b50505050565b6060610dd482611206565b610e0f5760405162461bcd60e51b815260040180806020018281038252602f8152602001806120ac602f913960400191505060405180910390fd5b60008281526008602090815260409182902080548351601f6002600019610100600186161502019093169290920491820184900484028101840190945280845260609392830182828015610ea45780601f10610e7957610100808354040283529160200191610ea4565b820191906000526020600020905b815481529060010190602001808311610e8757829003601f168201915b505060095493945050505060026000196101006001841615020190911604610ecd579050610696565b805115610f9e576009816040516020018083805460018160011615610100020316600290048015610f355780601f10610f13576101008083540402835291820191610f35565b820191906000526020600020905b815481529060010190602001808311610f21575b5050825160208401908083835b60208310610f615780518252601f199092019160209182019101610f42565b6001836020036101000a03801982511681845116808217855250505050505090500192505050604051602081830303815290604052915050610696565b6009610fa9846116c4565b60405160200180838054600181600116156101000203166002900480156110075780601f10610fe5576101008083540402835291820191611007565b820191906000526020600020905b815481529060010190602001808311610ff3575b5050825160208401908083835b602083106110335780518252601f199092019160209182019101611014565b6001836020036101000a03801982511681845116808217855250505050505090500192505050604051602081830303815290604052915050919050565b6001600160a01b03918216600090815260056020908152604080832093909416825291909152205460ff1690565b60606110a982611206565b6110e8576040805162461bcd60e51b81526020600482018190526024820152600080516020611f5e833981519152604482015290519081900360640190fd5b6000828152600c602090815260409182902080548351601f600260001961010060018616150201909316929092049182018490048402810184019094528084526060939283018282801561095e5780601f106109335761010080835404028352916020019161095e565b606061115d82611206565b61119c576040805162461bcd60e51b81526020600482018190526024820152600080516020611f5e833981519152604482015290519081900360640190fd5b6000828152600e602090815260409182902080548351601f600260001961010060018616150201909316929092049182018490048402810184019094528084526060939283018282801561095e5780601f106109335761010080835404028352916020019161095e565b60006109e760028361179f565b3390565b600081815260046020526040902080546001600160a01b0319166001600160a01b038416908117909155819061124c82610ad2565b6001600160a01b03167f8c5be1e5ebec7d5bd14f71427d1e84f3dd0314c0f7b2291e5b200ac8c7c3b92560405160405180910390a45050565b60006109e7826114be565b600061129b82611206565b6112d65760405162461bcd60e51b815260040180806020018281038252602c815260200180611f32602c913960400191505060405180910390fd5b60006112e183610ad2565b9050806001600160a01b0316846001600160a01b0316148061131c5750836001600160a01b031661131184610731565b6001600160a01b0316145b8061132c575061132c8185611070565b949350505050565b826001600160a01b031661134782610ad2565b6001600160a01b03161461138c5760405162461bcd60e51b81526004018080602001828103825260298152602001806120836029913960400191505060405180910390fd5b6001600160a01b0382166113d15760405162461bcd60e51b8152600401808060200182810382526024815260200180611f0e6024913960400191505060405180910390fd5b6113dc838383610869565b6113e7600082611217565b6001600160a01b038316600090815260016020526040902061140990826117ab565b506001600160a01b038216600090815260016020526040902061142c90826117b7565b50611439600282846117c3565b5080826001600160a01b0316846001600160a01b03167fddf252ad1be2c89b69c2b068fc378daa952ba7f163c4a11628f55a4df523b3ef60405160405180910390a4505050565b60006109e483836117d9565b600080808061149b868661183d565b9097909650945050505050565b6000610c5c8484846118b8565b80546001019055565b5490565b6000818152600b60209081526040909120835161086992850190611e26565b6001600160a01b03821661153c576040805162461bcd60e51b815260206004820181905260248201527f4552433732313a206d696e7420746f20746865207a65726f2061646472657373604482015290519081900360640190fd5b61154581611206565b15611597576040805162461bcd60e51b815260206004820152601c60248201527f4552433732313a20746f6b656e20616c7265616479206d696e74656400000000604482015290519081900360640190fd5b6115a360008383610869565b6001600160a01b03821660009081526001602052604090206115c590826117b7565b506115d2600282846117c3565b5060405181906001600160a01b038416906000907fddf252ad1be2c89b69c2b068fc378daa952ba7f163c4a11628f55a4df523b3ef908290a45050565b61161882611206565b6116535760405162461bcd60e51b815260040180806020018281038252602c815260200180612057602c913960400191505060405180910390fd5b6000828152600860209081526040909120825161086992840190611e26565b61167d848484611334565b61168984848484611982565b610dc35760405162461bcd60e51b8152600401808060200182810382526032815260200180611edc6032913960400191505060405180910390fd5b6060816116e957506040805180820190915260018152600360fc1b6020820152610696565b8160005b811561170157600101600a820491506116ed565b60608167ffffffffffffffff8111801561171a57600080fd5b506040519080825280601f01601f191660200182016040528015611745576020820181803683370190505b50859350905060001982015b831561179657600a840660300160f81b8282806001900393508151811061177457fe5b60200101906001600160f81b031916908160001a905350600a84049350611751565b50949350505050565b60006109e48383611aea565b60006109e48383611b02565b60006109e48383611bc8565b6000610c5c84846001600160a01b038516611c12565b8154600090821061181b5760405162461bcd60e51b8152600401808060200182810382526022815260200180611eba6022913960400191505060405180910390fd5b82600001828154811061182a57fe5b9060005260206000200154905092915050565b8154600090819083106118815760405162461bcd60e51b81526004018080602001828103825260228152602001806120096022913960400191505060405180910390fd5b600084600001848154811061189257fe5b906000526020600020906002020190508060000154816001015492509250509250929050565b600082815260018401602052604081205482816119535760405162461bcd60e51b81526004018080602001828103825283818151815260200191508051906020019080838360005b83811015611918578181015183820152602001611900565b50505050905090810190601f1680156119455780820380516001836020036101000a031916815260200191505b509250505060405180910390fd5b5084600001600182038154811061196657fe5b9060005260206000209060020201600101549150509392505050565b6000611996846001600160a01b0316611ca9565b6119a25750600161132c565b6060611ab0630a85bd0160e11b6119b7611213565b88878760405160240180856001600160a01b03168152602001846001600160a01b0316815260200183815260200180602001828103825283818151815260200191508051906020019080838360005b83811015611a1e578181015183820152602001611a06565b50505050905090810190601f168015611a4b5780820380516001836020036101000a031916815260200191505b5095505050505050604051602081830303815290604052906001600160e01b0319166020820180516001600160e01b038381831617835250505050604051806060016040528060328152602001611edc603291396001600160a01b0388169190611caf565b90506000818060200190516020811015611ac957600080fd5b50516001600160e01b031916630a85bd0160e11b1492505050949350505050565b60009081526001919091016020526040902054151590565b60008181526001830160205260408120548015611bbe5783546000198083019190810190600090879083908110611b3557fe5b9060005260206000200154905080876000018481548110611b5257fe5b600091825260208083209091019290925582815260018981019092526040902090840190558654879080611b8257fe5b600190038181906000526020600020016000905590558660010160008781526020019081526020016000206000905560019450505050506109e7565b60009150506109e7565b6000611bd48383611aea565b611c0a575081546001818101845560008481526020808220909301849055845484825282860190935260409020919091556109e7565b5060006109e7565b600082815260018401602052604081205480611c77575050604080518082018252838152602080820184815286546001818101895560008981528481209551600290930290950191825591519082015586548684528188019092529290912055610c5f565b82856000016001830381548110611c8a57fe5b9060005260206000209060020201600101819055506000915050610c5f565b3b151590565b6060610c5c84846000856060611cc485611ca9565b611d15576040805162461bcd60e51b815260206004820152601d60248201527f416464726573733a2063616c6c20746f206e6f6e2d636f6e7472616374000000604482015290519081900360640190fd5b60006060866001600160a01b031685876040518082805190602001908083835b60208310611d545780518252601f199092019160209182019101611d35565b6001836020036101000a03801982511681845116808217855250505050505090500191505060006040518083038185875af1925050503d8060008114611db6576040519150601f19603f3d011682016040523d82523d6000602084013e611dbb565b606091505b50915091508115611dcf57915061132c9050565b805115611ddf5780518082602001fd5b60405162461bcd60e51b8152602060048201818152865160248401528651879391928392604401919085019080838360008315611918578181015183820152602001611900565b828054600181600116156101000203166002900490600052602060002090601f016020900481019282601f10611e6757805160ff1916838001178555611e94565b82800160010185558215611e94579182015b82811115611e94578251825591602001919060010190611e79565b50611ea0929150611ea4565b5090565b5b80821115611ea05760008155600101611ea556fe456e756d657261626c655365743a20696e646578206f7574206f6620626f756e64734552433732313a207472616e7366657220746f206e6f6e20455243373231526563656976657220696d706c656d656e7465724552433732313a207472616e7366657220746f20746865207a65726f20616464726573734552433732313a206f70657261746f7220717565727920666f72206e6f6e6578697374656e7420746f6b656e4469676974616c204944206e756d62657220646f6573206e6f742065787369744552433732313a20617070726f76652063616c6c6572206973206e6f74206f776e6572206e6f7220617070726f76656420666f7220616c6c4552433732313a2062616c616e636520717565727920666f7220746865207a65726f20616464726573734552433732313a206f776e657220717565727920666f72206e6f6e6578697374656e7420746f6b656e456e756d657261626c654d61703a20696e646578206f7574206f6620626f756e64734552433732313a20617070726f76656420717565727920666f72206e6f6e6578697374656e7420746f6b656e4552433732314d657461646174613a2055524920736574206f66206e6f6e6578697374656e7420746f6b656e4552433732313a207472616e73666572206f6620746f6b656e2074686174206973206e6f74206f776e4552433732314d657461646174613a2055524920717565727920666f72206e6f6e6578697374656e7420746f6b656e4552433732313a20617070726f76616c20746f2063757272656e74206f776e65724552433732313a207472616e736665722063616c6c6572206973206e6f74206f776e6572206e6f7220617070726f766564a2646970667358221220ee07475bfbb2766a12f1c781992dc40e5cccb60bb6e55dacfaf5e6b25754dde364736f6c634300060c0033",
  "immutableReferences": {},
  "source": "// contracts/GameItem.sol\n// SPDX-License-Identifier: MIT\npragma solidity ^0.6.0;\n\nimport \"@openzeppelin/contracts/token/ERC721/ERC721.sol\";\nimport \"@openzeppelin/contracts/utils/Counters.sol\";\n\ncontract DigitalIdIssuer is ERC721 {\n    using Counters for Counters.Counter;\n    Counters.Counter private _idNumber;\n    mapping (uint256 => string) private _verifiedNames;\n    mapping (uint256 => string) private _verifiedAddresses;\n    mapping (uint256 => string) private _verifiedSsns;\n    mapping (uint256 => string) private _verifiedIncomes;\n\n    constructor() public ERC721(\"Digital ID\", \"ID\") {}\n\n    function issueId(address verifiedPerson, string memory verifiedName, string memory tokenURI)\n        public\n        returns (uint256)\n    {\n        _idNumber.increment();\n\n        uint256 verifiedPersonIdNumber = _idNumber.current();\n        _setVerifiedName(verifiedName, verifiedPersonIdNumber);\n\n        _mint(verifiedPerson, verifiedPersonIdNumber);\n        _setTokenURI(verifiedPersonIdNumber, tokenURI);\n\n        return verifiedPersonIdNumber;\n    }\n\n    function _setVerifiedName(string memory name, uint256 idNumber)\n        internal {\n        _verifiedNames[idNumber] = name; \n    }\n\n    function getVerifiedName(uint256 idNumber) public view returns (string memory) {\n        require(_exists(idNumber), \"Digital ID number does not exsit\");\n\n        string memory _verifiedName = _verifiedNames[idNumber];\n        return _verifiedName;\n    }\n\n    //Address\n     function _setVerifiedAddress(string memory address1, uint256 idNumber)\n        internal {\n        _verifiedAddresses[idNumber] = address1; \n    }\n    function getVerifiedAddress(uint256 idNumber) public view returns (string memory) {\n        require(_exists(idNumber), \"Digital ID number does not exsit\");\n\n        string memory _verifiedAddress = _verifiedAddresses[idNumber];\n        return _verifiedAddress;\n    }\n    //SSN\n     function _setVerifiedSsn(string memory ssn, uint256 idNumber)\n        internal {\n        _verifiedSsns[idNumber] = ssn; \n    }\n    function getVerifiedSsn(uint256 idNumber) public view returns (string memory) {\n        require(_exists(idNumber), \"Digital ID number does not exsit\");\n\n        string memory _verifiedSsn = _verifiedSsns[idNumber];\n        return _verifiedSsn;\n    }\n    //Income\n     function _setVerifiedIncome(string memory income, uint256 idNumber)\n        internal {\n        _verifiedIncomes[idNumber] = income; \n    }\n    function getVerifiedIncome(uint256 idNumber) public view returns (string memory) {\n        require(_exists(idNumber), \"Digital ID number does not exsit\");\n\n        string memory _verifiedIncome = _verifiedIncomes[idNumber];\n        return _verifiedIncome;\n    }\n}",
  "sourcePath": "/home/phil/hackathon/erc721-digital-id/contracts/DigitalIdIssuer.sol",
  "compiler": {
    "name": "solc",
    "version": "0.6.12+commit.27d51765.Emscripten.clang"
  },
  "schemaVersion": "3.2.4",
  "updatedAt": "2020-10-27T23:14:26.544Z",
  "networkType": "ethereum",
  "devdoc": {
    "kind": "dev",
    "methods": {
      "approve(address,uint256)": {
        "details": "See {IERC721-approve}."
      },
      "balanceOf(address)": {
        "details": "See {IERC721-balanceOf}."
      },
      "baseURI()": {
        "details": "Returns the base URI set via {_setBaseURI}. This will be automatically added as a prefix in {tokenURI} to each token's URI, or to the token ID if no specific URI is set for that token ID."
      },
      "getApproved(uint256)": {
        "details": "See {IERC721-getApproved}."
      },
      "isApprovedForAll(address,address)": {
        "details": "See {IERC721-isApprovedForAll}."
      },
      "name()": {
        "details": "See {IERC721Metadata-name}."
      },
      "ownerOf(uint256)": {
        "details": "See {IERC721-ownerOf}."
      },
      "safeTransferFrom(address,address,uint256)": {
        "details": "See {IERC721-safeTransferFrom}."
      },
      "safeTransferFrom(address,address,uint256,bytes)": {
        "details": "See {IERC721-safeTransferFrom}."
      },
      "setApprovalForAll(address,bool)": {
        "details": "See {IERC721-setApprovalForAll}."
      },
      "supportsInterface(bytes4)": {
        "details": "See {IERC165-supportsInterface}. Time complexity O(1), guaranteed to always use less than 30 000 gas."
      },
      "symbol()": {
        "details": "See {IERC721Metadata-symbol}."
      },
      "tokenByIndex(uint256)": {
        "details": "See {IERC721Enumerable-tokenByIndex}."
      },
      "tokenOfOwnerByIndex(address,uint256)": {
        "details": "See {IERC721Enumerable-tokenOfOwnerByIndex}."
      },
      "tokenURI(uint256)": {
        "details": "See {IERC721Metadata-tokenURI}."
      },
      "totalSupply()": {
        "details": "See {IERC721Enumerable-totalSupply}."
      },
      "transferFrom(address,address,uint256)": {
        "details": "See {IERC721-transferFrom}."
      }
    },
    "version": 1
  },
  "userdoc": {
    "kind": "user",
    "methods": {},
    "version": 1
  }
}